:020000040800F2
:100000000050002035070008BD060008C50600089E
:10001000CD060008D5060008DD0600080000000037
:10002000000000000000000000000000E5060008DD
:10003000F106000800000000FD060008090700089E
:100040007D0700087D0700087D0700087D07000880
:100050007D0700087D0700087D0700087D07000870
:100060007D0700087D0700087D0700087D07000860
:100070007D0700087D0700087D0700087D07000850
:100080007D0700087D0700087D0700087D07000840
:10009000150700087D0700087D0700087D07000898
:1000A0007D0700087D0700087D0700087D07000820
:1000B0007D0700087D0700087D0700087D07000810
:1000C0007D0700087D0700087D0700087D07000800
:1000D0007D0700087D0700087D0700087D070008F0
:1000E0007D0700087D0700087D070008000000006C
:1000F0000000000000000000000000000000000000
:0C01000000000000000000005FF808F1A3
:10010C0010B5054C237833B9044B13B10448AFF345
:10011C0000800123237010BD0C00002000000000A3
:10012C003827000808B5034B1BB103490348AFF34C
:10013C00008008BD000000001000002038270008D7
:10014C00034613F8012B002AFBD1181A013870470B
:10015C00B0B588B000AF00F00DFB00F025F800F052
:10016C00C9F800F067F800F09BF80D4B3C461D46B3
:10017C000FCD0FC495E80F0007C423703B461846FB
:10018C00FFF7DEFF03469AB239464FF0FF330548BE
:10019C0002F0CCF800F000F900F026F9FCE700BF03
:1001AC00502700085000002080B590B000AF07F138
:1001BC00180328220021184602F08CFA3B1D00225D
:1001CC001A605A609A60DA601A610123BB614FF4BD
:1001DC008033FB6100233B620123BB6202237B6300
:1001EC004FF48033BB634FF4C013FB6307F1180368
:1001FC00184601F03BFC0346002B01D000F0C6F87A
:10020C000F237B600223BB600023FB604FF48063F1
:10021C003B6100237B613B1D0221184601F0A8FEC7
:10022C000346002B01D000F0B1F800BF4037BD46AB
:10023C0080BD000080B500AF174B184A1A60164BF2
:10024C0004225A60144B00229A60134B0022DA608D
:10025C00114B4FF430221A610F4B4FF400125A61BC
:10026C000D4B00221A760C4B00225A760A4B0022B8
:10027C009A76094B0122DA76074B00221A77064B45
:10028C0000225A77044800F0FBFA0346002B01D0F9
:10029C0000F07CF800BF80BD280000200064004006
:1002AC0080B500AF114B124A1A60104B4FF4E1327B
:1002BC005A600E4B00229A600C4B0022DA600B4BFA
:1002CC0000221A61094B0C225A61084B00229A61D8
:1002DC00064B0022DA61054801F0D8FF0346002BDB
:1002EC0001D000F053F800BF80BD00BF50000020CB
:1002FC000038014080B588B000AF07F11003002230
:10030C001A605A609A60DA601E4B9B691D4A43F072
:10031C00200393611B4B9B6903F02003FB60FB687C
:10032C00184B9B69174A43F008039361154B9B6963
:10033C0003F00803BB60BB68124B9B69114A43F086
:10034C00040393610F4B9B6903F004037B607B6890
:10035C0001224FF480610C4801F070FB4FF4806374
:10036C003B6101237B610023BB610223FB6107F12D
:10037C0010031946044801F0DDF900BF2037BD46D3
:10038C0080BD00BF00100240000C014080B400AFE3
:10039C0072B600BF00BFFDE780B58AB000AF0E2378
:1003AC007B6201233B6200237B6100233B614FF4A2
:1003BC0000533B6000237B604FF64073BB6004230B
:1003CC00FB600023BB610123FB613B4619460548DA
:1003DC0000F051FB034800F017FC00BF2837BD4666
:1003EC0080BD00BF2800002080B592B000AF4FF454
:1003FC0000733B630023FB630023BB6301233B645B
:10040C00002387F8443000213E4800F031FE0346BB
:10041C00002B72D03B1D07F10C020021394800F073
:10042C0006FD0346002B68D1FB68B3F5807F04D032
:10043C0040F20512934250D05FE0FB69052B3ED190
:10044C003B79A12B3BD17B79132B38D1BB79322B48
:10045C0035D1FB79072B32D13B7A872B2FD1012356
:10046C0087F82C3007F1280307F12C0207F1300133
:10047C00244800F00DFC40F2DC5000F0DDF90022C5
:10048C004FF48061204801F0D9FA41F2941000F049
:10049C00D3F901224FF480611B4801F0CFFA06E03A
:1004AC003B1D07F10C020021164800F0C0FC002196
:1004BC00144800F0DDFD0346002BF1D10CE00223C3
:1004CC0087F82C3007F1280307F12C0207F13001D3
:1004DC000C4800F0DDFB10E00FE03B79FF2B0BD15B
:1004EC00032387F82C3007F1280307F12C0207F1BE
:1004FC003001044800F0CCFB00BF00BF4837BD46BC
:10050C0080BD00BF28000020000C014080B485B0E5
:10051C0000AF154B9B69144A43F001039361124BD6
:10052C009B6903F00103BB60BB680F4BDB690E4A90
:10053C0043F08053D3610C4BDB6903F080537B6039
:10054C007B680A4B5B68FB60FB6823F0E063FB6035
:10055C00FB6843F00073FB60044AFB68536000BF08
:10056C001437BD4680BC70470010024000000140AB
:10057C0080B588B000AF786007F1100300221A60D4
:10058C005A609A60DA607B681B68204A934239D1C2
:10059C001F4BDB691E4A43F00073D3611C4BDB69B4
:1005AC0003F00073FB60FB68194B9B69184A43F01E
:1005BC0004039361164B9B6903F00403BB60BB6897
:1005CC004FF400633B6100237B610023BB6107F1A7
:1005DC00100319460F4801F0ADF84FF480533B61FE
:1005EC0002237B610323FB6107F1100319460948C1
:1005FC0001F0A0F800220021142001F064F814206E
:10060C0001F07DF800BF2037BD4680BD006400407E
:10061C00001002400008014080B588B000AF78603F
:10062C0007F1100300221A605A609A60DA607B6846
:10063C001B681C4A934231D11B4B9B691A4A43F4E9
:10064C0080439361184B9B6903F48043FB60FB6808
:10065C00154B9B69144A43F004039361124B9B693D
:10066C0003F00403BB60BB684FF400733B610223CF
:10067C007B610323FB6107F1100319460B4801F062
:10068C0059F84FF480633B6100237B610023BB610D
:10069C0007F110031946054801F04CF800BF20374C
:1006AC00BD4680BD003801400010024000080140EA
:1006BC0080B400AF00BFFDE780B400AF00BFFDE722
:1006CC0080B400AF00BFFDE780B400AF00BFFDE712
:1006DC0080B400AF00BFFDE780B400AF00BFBD46E3
:1006EC0080BC704780B400AF00BFBD4680BC704773
:1006FC0080B400AF00BFBD4680BC704780B500AF72
:10070C0000F07EF800BF80BD80B500AF024800F05D
:10071C00D6FC00BF80BD00BF2800002080B400AF15
:10072C0000BFBD4680BC7047FFF7F8FF0B480C4973
:10073C000C4A002302E0D458C4500433C4188C4231
:10074C00F9D3094A094C002301E013600432A24298
:10075C00FBD301F0C7FFFFF7FBFC70470000002044
:10076C000C000020AC2700080C0000209C0000208E
:10077C00FEE7000080B500AF084B1B68074A43F04A
:10078C0010031360032000F093FF0F2000F008F813
:10079C00FFF7BCFE0023184680BD00BF00200240BE
:1007AC0080B582B000AF7860124B1A68124B1B7880
:1007BC0019464FF47A73B3FBF1F3B2FBF3F318461B
:1007CC0000F0ABFF0346002B01D001230EE07B6849
:1007DC000F2B0AD8002279684FF0FF3000F073FF1E
:1007EC00064A7B681360002300E001231846083793
:1007FC00BD4680BD00000020080000200400002041
:10080C0080B400AF054B1B781A46054B1B6813448C
:10081C00034A136000BFBD4680BC7047080000202F
:10082C009800002080B400AF024B1B681846BD46F0
:10083C0080BC70479800002080B584B000AF786011
:10084C00FFF7F0FFB8607B68FB60FB68B3F1FF3F1C
:10085C0005D00A4B1B781A46FB681344FB6000BF9B
:10086C00FFF7E0FF0246BB68D31AFA689A42F7D842
:10087C0000BF00BF1037BD4680BD00BF0800002080
:10088C0080B584B000AF78607B68002B01D1012368
:10089C00EDE07B6893F82030DBB2002B02D1786856
:1008AC00FFF766FE7B681B681A687B681B6842F062
:1008BC0001021A60FFF7B6FFF86012E0FFF7B2FF13
:1008CC000246FB68D31A0A2B0BD97B685B6A43F48C
:1008DC0000327B685A627B68052283F82020012352
:1008EC00C5E07B681B685B6803F00103002BE5D057
:1008FC007B681B681A687B681B6822F002021A600E
:10090C00FFF790FFF86012E0FFF78CFF0246FB68E0
:10091C00D31A0A2B0BD97B685B6A43F400327B68D1
:10092C005A627B68052283F8202001239FE07B68B4
:10093C001B685B6803F00203002BE5D17B681B7E10
:10094C00012B08D17B681B681A687B681B6842F016
:10095C0080021A6007E07B681B681A687B681B685A
:10096C0022F080021A607B685B7E012B08D17B68C9
:10097C001B681A687B681B6842F040021A6007E02B
:10098C007B681B681A687B681B6822F040021A603F
:10099C007B689B7E012B08D17B681B681A687B687F
:1009AC001B6842F020021A6007E07B681B681A681B
:1009BC007B681B6822F020021A607B68DB7E012BAF
:1009CC0008D17B681B681A687B681B6822F01002D0
:1009DC001A6007E07B681B681A687B681B6842F02A
:1009EC0010021A607B681B7F012B08D17B681B6887
:1009FC001A687B681B6842F008021A6007E07B6883
:100A0C001B681A687B681B6822F008021A607B68F6
:100A1C005B7F012B08D17B681B681A687B681B689D
:100A2C0042F004021A6007E07B681B681A687B6856
:100A3C001B6822F004021A607B689A687B68DB688A
:100A4C001A437B681B691A437B685B6942EA0301A2
:100A5C007B685B685A1E7B681B680A43DA617B689B
:100A6C0000225A627B68012283F82020002318465A
:100A7C001037BD4680BD80B487B000AF7860396058
:100A8C007B681B687B617B6893F82030FB74FB7C74
:100A9C00012B03D0FB7C022B40F0AA807B69D3F89E
:100AAC00003243F001027B69C3F800223B685B69AA
:100ABC0003F01F03012202FA03F3FB607B69D3F8F6
:100ACC001C22FB68DB431A407B69C3F81C223B6881
:100ADC00DB69002B23D17B69D3F80C22FB68DB4349
:100AEC001A407B69C3F80C223B68DB6819043B682D
:100AFC005B689BB23A68526919437B69483243F888
:100B0C0032103B689B6819043B681B689AB23B68BF
:100B1C005B690A4379694833DB000B445A603B68D4
:100B2C00DB69012B22D17B69D3F80C22FB681A43B9
:100B3C007B69C3F80C223B681B6819043B685B6833
:100B4C009BB23A68526919437B69483243F83210B8
:100B5C003B689B6819043B68DB689AB23B685B692D
:100B6C000A4379694833DB000B445A603B689B6944
:100B7C00002B09D17B69D3F80422FB68DB431A40B4
:100B8C007B69C3F8042207E07B69D3F80422FB6875
:100B9C001A437B69C3F804223B681B69002B09D1FB
:100BAC007B69D3F81422FB68DB431A407B69C3F8DA
:100BBC00142207E07B69D3F81422FB681A437B6983
:100BCC00C3F814223B681B6A012B07D17B69D3F84D
:100BDC001C22FB681A437B69C3F81C227B69D3F87F
:100BEC00003223F001027B69C3F80022002306E0E7
:100BFC007B685B6A43F480227B685A620123184647
:100C0C001C37BD4680BC704780B584B000AF78609F
:100C1C007B6893F82030DBB2012B2ED17B6802224B
:100C2C0083F820207B681B681A687B681B6822F09D
:100C3C0001021A60FFF7F6FDF86012E0FFF7F2FD13
:100C4C000246FB68D31A0A2B0BD97B685B6A43F408
:100C5C0000327B685A627B68052283F820200123CE
:100C6C0012E07B681B685B6803F00103002BE5D185
:100C7C007B6800225A62002306E07B685B6A43F4BF
:100C8C0000227B685A62012318461037BD4680BD8E
:100C9C0080B489B000AFF860B9607A603B60FB68E3
:100CAC0093F82030FB77FB681B689B68BB61FB7F6C
:100CBC00012B03D0FB7F022B40F0AD80BB6903F00E
:100CCC008063002B0AD1BB6903F00063002B05D1B4
:100CDC00BB6903F08053002B00F09580BB691B0EA1
:100CEC0003F003037B6101227B699A403B681A6025
:100CFC00BB689B68002B0DD1BB681B685A05BB6891
:100D0C00DB68F96809681A437B6918331B010B44CB
:100D1C001A600FE0BB685B68DA00BB689B681A431B
:100D2C00BB68DB68F96809681A437B6918331B01D7
:100D3C000B441A60FB681968BB681A697B69183325
:100D4C001B010B4404331A60BB681B7D012B11D1B2
:100D5C00FB681A687B6918331B01134404331B6846
:100D6C00FA68116843F480727B6918331B010B44D9
:100D7C0004331A607B6807331B781A067B680633CA
:100D8C001B781B041A437B6805331B781B02134327
:100D9C007A68043212781046FA68116843EA000245
:100DAC007B691B010B4403F5C6731A607B68033324
:100DBC001B781A067B6802331B781B041A437B686A
:100DCC0001331B781B0213437A6812781046FA68B9
:100DDC00116843EA00027B691B010B4403F5C473E1
:100DEC001A60FB681A687B6918331B0113441B6873
:100DFC00FA68116843F001027B6918331B010B443C
:100E0C001A6000230EE0FB685B6A43F40012FB6877
:100E1C005A62012306E0FB685B6A43F48022FB689C
:100E2C005A62012318462437BD4680BC704780B4F3
:100E3C0087B000AFF860B9607A603B60FB6893F8EC
:100E4C002030FB75FB7D012B03D0FB7D022B40F08A
:100E5C000381BB68002B0ED1FB681B68DB6803F0B9
:100E6C000303002B16D1FB685B6A43F40012FB688A
:100E7C005A620123F7E0FB681B681B6903F003034C
:100E8C00002B07D1FB685B6A43F40012FB685A62C3
:100E9C000123E8E0FB681A68BB681B331B01134491
:100EAC001B6803F004027B689A607B689B68002BCC
:100EBC000CD1FB681A68BB681B331B0113441B68FD
:100ECC005B0DC3F30A027B681A600BE0FB681A68BF
:100EDC00BB681B331B0113441B68DB0823F0604207
:100EEC007B685A60FB681A68BB681B331B01134490
:100EFC001B6803F002027B68DA60FB681A68BB6847
:100F0C001B331B01134404331B6803F00803002B31
:100F1C0003D07B6808221A610BE0FB681A68BB6877
:100F2C001B331B01134404331B6803F00F027B6853
:100F3C001A61FB681A68BB681B331B01134404332A
:100F4C001B681B0ADAB27B689A61FB681A68BB687B
:100F5C001B331B01134404331B681B0C9AB27B68B4
:100F6C005A61FB681A68BB681B01134403F5DC73F8
:100F7C001B68DAB23B681A70FB681A68BB681B0105
:100F8C00134403F5DC731B681A0A3B680133D2B2B5
:100F9C001A70FB681A68BB681B01134403F5DC73F9
:100FAC001B681A0C3B680233D2B21A70FB681A68C1
:100FBC00BB681B01134403F5DC731B681A0E3B68FA
:100FCC000333D2B21A70FB681A68BB681B01134456
:100FDC0003F5DE731A683B680433D2B21A70FB68EF
:100FEC001A68BB681B01134403F5DE731B681A0AED
:100FFC003B680533D2B21A70FB681A68BB681B01D8
:10100C00134403F5DE731B681A0C3B680633D2B22B
:10101C001A70FB681A68BB681B01134403F5DE7376
:10102C001B681A0E3B680733D2B21A70BB68002BD0
:10103C0008D1FB681B68DA68FB681B6842F0200269
:10104C00DA6007E0FB681B681A69FB681B6842F0F2
:10105C0020021A61002306E0FB685B6A43F48022DD
:10106C00FB685A62012318461C37BD4680BC70478A
:10107C0080B485B000AF786039600023FB607B687A
:10108C0093F82030FB72FB7A012B02D0FB7A022BF7
:10109C000FD13B68002B06D17B681B68DB6803F023
:1010AC000303FB6005E07B681B681B6903F003030B
:1010BC00FB60FB6818461437BD4680BC704780B592
:1010CC008AB000AF786000237B627B681B685B6929
:1010DC003B627B681B685B68FB617B681B689B6879
:1010EC00BB617B681B68DB687B617B681B681B6969
:1010FC003B617B681B689B69FB603B6A03F00103E7
:10110C00002B7CD0BB6903F00103002B23D07B6840
:10111C001B6801229A60BB6903F00203002B03D009
:10112C00786800F083F916E0BB6903F00403002B28
:10113C0004D07B6A43F400637B620CE0BB6903F070
:10114C000803002B04D07B6A43F480537B6202E0DB
:10115C00786800F086F9BB6903F48073002B24D007
:10116C007B681B684FF480729A60BB6903F4007350
:10117C00002B03D0786800F062F916E0BB6903F429
:10118C008063002B04D07B6A43F400537B620CE039
:10119C00BB6903F40063002B04D07B6A43F48043E7
:1011AC007B6202E0786800F065F9BB6903F4803378
:1011BC00002B24D07B681B684FF480329A60BB698B
:1011CC0003F40033002B03D0786800F041F916E0EB
:1011DC00BB6903F48023002B04D07B6A43F40043E7
:1011EC007B620CE0BB6903F40023002B04D07B6A08
:1011FC0043F480337B6202E0786800F044F93B6A88
:10120C0003F00803002B0CD07B6903F01003002BB8
:10121C0007D07B6A43F400737B627B681B681022E7
:10122C00DA603B6A03F00403002B0BD07B6903F0FC
:10123C000803002B06D07B681B680822DA607868EC
:10124C0000F033F93B6A03F00203002B09D07B68F2
:10125C001B68DB6803F00303002B02D0786800F0F6
:10126C001BF93B6A03F04003002B0CD03B6903F0E5
:10127C001003002B07D07B6A43F480637B627B688E
:10128C001B6810221A613B6A03F02003002B0BD061
:10129C003B6903F00803002B06D07B681B6808220F
:1012AC001A61786800F013F93B6A03F01003002B05
:1012BC0009D07B681B681B6903F00303002B02D069
:1012CC00786800F0FBF83B6A03F40033002B0BD07A
:1012DC00FB6903F01003002B06D07B681B681022FF
:1012EC005A60786800F0FCF83B6A03F48033002BFA
:1012FC000BD0FB6903F00803002B06D07B681B683E
:10130C0008225A60786800F0F4F83B6A03F4004352
:10131C00002B7BD0FB6903F00403002B72D03B6ADB
:10132C0003F48073002B08D0FB6803F00103002B3F
:10133C0003D07B6A43F001037B623B6A03F40073C6
:10134C00002B08D0FB6803F00203002B03D07B6A50
:10135C0043F002037B623B6A03F48063002B08D0EA
:10136C00FB6803F00403002B03D07B6A43F00403F7
:10137C007B623B6A03F40063002B43D0FB6803F0F1
:10138C007003002B3ED0FB6803F07003602B2BD056
:10139C00602B2ED8502B22D0502B2AD8402B19D072
:1013AC00402B26D8302B10D0302B22D8102B02D02B
:1013BC00202B05D01DE07B6A43F008037B6219E00B
:1013CC007B6A43F010037B6214E07B6A43F02003DA
:1013DC007B620FE07B6A43F040037B620AE07B6A2E
:1013EC0043F080037B6205E07B6A43F480737B628D
:1013FC0000E000BF7B681B689A697B681B6822F061
:10140C0070029A617B681B6804225A607B6A002B0D
:10141C0008D07B685A6A7B6A1A437B685A62786880
:10142C0000F070F800BF2837BD4680BD80B483B093
:10143C0000AF786000BF0C37BD4680BC704780B4ED
:10144C0083B000AF786000BF0C37BD4680BC7047DE
:10145C0080B483B000AF786000BF0C37BD4680BC51
:10146C00704780B483B000AF786000BF0C37BD46C6
:10147C0080BC704780B483B000AF786000BF0C377D
:10148C00BD4680BC704780B483B000AF786000BFAD
:10149C000C37BD4680BC704780B483B000AF786019
:1014AC0000BF0C37BD4680BC704780B483B000AF22
:1014BC00786000BF0C37BD4680BC704780B483B0E9
:1014CC0000AF786000BF0C37BD4680BC704780B45D
:1014DC0083B000AF786000BF0C37BD4680BC70474E
:1014EC0080B483B000AF786000BF0C37BD4680BCC1
:1014FC00704780B483B000AF786000BF0C37BD4636
:10150C0080BC704780B483B000AF786000BF0C37EC
:10151C00BD4680BC7047000080B485B000AF7860D9
:10152C007B6803F00703FB600C4BDB68BB60BA689D
:10153C004FF6FF031340BB60FB681A02BB681343F2
:10154C0043F0BF6343F40033BB60044ABB68D36011
:10155C0000BF1437BD4680BC704700BF00ED00E0F3
:10156C0080B400AF044BDB681B0A03F0070318467A
:10157C00BD4680BC704700BF00ED00E080B483B076
:10158C0000AF0346FB7197F90730002B0BDBFB799F
:10159C0003F01F02064997F907305B09012000FA96
:1015AC0002F241F8232000BF0C37BD4680BC7047C7
:1015BC0000E100E080B483B000AF03463960FB71FA
:1015CC0097F90730002B0ADB3B68DAB20C4997F924
:1015DC0007301201D2B20B4483F800230AE03B68B7
:1015EC00DAB20849FB7903F00F03043B1201D2B2C3
:1015FC000B441A7600BF0C37BD4680BC704700BF49
:10160C0000E100E000ED00E080B489B000AFF860CC
:10161C00B9607A60FB6803F00703FB61FB69C3F1F7
:10162C000703042B28BF0423BB61FB690433062B7F
:10163C0002D9FB69033B00E000237B614FF0FF32D2
:10164C00BB6902FA03F3DA43BB681A407B699A4020
:10165C004FF0FF317B6901FA03F3D9437B680B40F0
:10166C00134318462437BD4680BC704780B582B002
:10167C0000AF78607B68013BB3F1807F01D301231D
:10168C000FE00A4A7B68013B53600F214FF0FF309B
:10169C00FFF790FF054B00229A60044B07221A605B
:1016AC00002318460837BD4680BD00BF10E000E09F
:1016BC0080B582B000AF78607868FFF72DFF00BF6F
:1016CC000837BD4680BD80B586B000AF0346B96013
:1016DC007A60FB7300237B61FFF742FF78617A68C5
:1016EC00B9687869FFF790FF024697F90F301146F9
:1016FC001846FFF75FFF00BF1837BD4680BD80B5A9
:10170C0082B000AF0346FB7197F907301846FFF71C
:10171C0035FF00BF0837BD4680BD80B582B000AF35
:10172C0078607868FFF7A2FF034618460837BD4675
:10173C0080BD000080B48BB000AF786039600023AE
:10174C007B6200233B6269E101227B6A02FA03F3AC
:10175C00FB613B681B68FA691340BB61BA69FB69A2
:10176C009A4240F058813B685B689A4A93425ED03B
:10177C00984A934275D8984A934258D0964A9342C5
:10178C006FD8964A934252D0944A934269D8944A5D
:10179C0093424CD0924A934263D8924A934246D099
:1017AC00904A93425DD8122B2AD8122B59D801A2F9
:1017BC0052F823F03B1800081518000827180008E9
:1017CC00691800086F1800086F1800086F180008D7
:1017DC006F1800086F1800086F1800086F180008C1
:1017EC006F1800086F1800086F1800086F180008B1
:1017FC006F1800086F1800081D1800083118000831
:10180C00794A934213D02CE03B68DB683B6229E0B9
:10181C003B68DB6804333B6224E03B68DB680833DD
:10182C003B621FE03B68DB680C333B621AE03B68B1
:10183C009B68002B02D104233B6213E03B689B683E
:10184C00012B05D108233B627B68FA691A6109E018
:10185C0008233B627B68FA695A6103E000233B6210
:10186C0000E000BFBB69FF2B01D87B6801E07B68FF
:10187C0004337B61BB69FF2B02D87B6A9B0002E0BF
:10188C007B6A083B9B003B617B691A680F213B69B3
:10189C0001FA03F3DB431A40396A3B6901FA03F39B
:1018AC001A437B691A603B685B6803F08053002B1A
:1018BC0000F0B1804D4B9B694C4A43F0010393619E
:1018CC004A4B9B6903F00103BB60BB68484A7B6AC7
:1018DC009B08023352F82330FB607B6A03F003034E
:1018EC009B000F2202FA03F3DB43FA681340FB6000
:1018FC007B68404A934213D07B683F4A93420DD099
:10190C007B683E4A934207D07B683D4A934201D1A3
:10191C00032306E0042304E0022302E0012300E099
:10192C0000237A6A02F0030292009340FA68134390
:10193C00FB602F497B6A9B080233FA6841F823202D
:10194C003B685B6803F48013002B06D02D4B9A6820
:10195C002C49BB6913438B6006E02A4B9A68BB6920
:10196C00DB43284913408B603B685B6803F400132E
:10197C00002B06D0234BDA682249BB691343CB609A
:10198C0006E0204BDA68BB69DB431E491340CB6091
:10199C003B685B6803F40033002B06D0194B5A6884
:1019AC001849BB6913434B6006E0164B5A68BB6978
:1019BC00DB43144913404B603B685B6803F4803392
:1019CC00002B21D00F4B1A680E49BB6913430B60D7
:1019DC0021E000BF00003210000031100000221086
:1019EC000000211000001210000011100010024025
:1019FC000000014000080140000C014000100140B3
:101A0C0000140140000401400B4B1A68BB69DB4316
:101A1C00094913400B607B6A01337B623B681A688F
:101A2C007B6A22FA03F3002B7FF48EAE00BF00BF5B
:101A3C002C37BD4680BC70470004014080B483B095
:101A4C0000AF78600B467B8013467B707B78002B55
:101A5C0003D07A887B681A6103E07B881A047B6860
:101A6C001A6100BF0C37BD4680BC704780B586B08C
:101A7C0000AF78607B68002B01D1012372E27B6898
:101A8C001B6803F00103002B00F08780924B5B680E
:101A9C0003F00C03042B0CD08F4B5B6803F00C038E
:101AAC00082B12D18C4B5B6803F48033B3F5803F69
:101ABC000BD1894B1B6803F40033002B6CD07B6873
:101ACC005B68002B68D101234CE27B685B68B3F543
:101ADC00803F06D1804B1B687F4A43F480331360F0
:101AEC002EE07B685B68002B0CD17B4B1B687A4A21
:101AFC0023F480331360784B1B68774A23F48023DC
:101B0C0013601DE07B685B68B3F5A02F0CD1724BA2
:101B1C001B68714A43F4802313606F4B1B686E4A39
:101B2C0043F4803313600BE06B4B1B686A4A23F45D
:101B3C0080331360684B1B68674A23F4802313605F
:101B4C007B685B68002B13D0FEF76CFE386108E0F5
:101B5C00FEF768FE02463B69D31A642B01D90323B6
:101B6C0000E25D4B1B6803F40033002BF0D014E053
:101B7C00FEF758FE386108E0FEF754FE02463B695A
:101B8C00D31A642B01D90323ECE1534B1B6803F4E8
:101B9C000033002BF0D100E000BF7B681B6803F022
:101BAC000203002B63D04C4B5B6803F00C03002B3F
:101BBC000BD0494B5B6803F00C03082B1CD1464B34
:101BCC005B6803F48033002B16D1434B1B6803F086
:101BDC000203002B05D07B681B69012B01D001236C
:101BEC00C0E13D4B1B6823F0F8027B685B69DB00AE
:101BFC00394913430B603AE07B681B69002B20D0FA
:101C0C00364B01221A60FEF70DFE386108E0FEF734
:101C1C0009FE02463B69D31A022B01D90323A1E129
:101C2C002D4B1B6803F00203002BF0D02A4B1B68D2
:101C3C0023F0F8027B685B69DB00274913430B60D8
:101C4C0015E0264B00221A60FEF7ECFD386108E027
:101C5C00FEF7E8FD02463B69D31A022B01D9032398
:101C6C0080E11D4B1B6803F00203002BF0D17B6855
:101C7C001B6803F00803002B3AD07B689B69002B90
:101C8C0019D0174B01221A60FEF7CCFD386108E021
:101C9C00FEF7C8FD02463B69D31A022B01D9032378
:101CAC0060E10D4B5B6A03F00203002BF0D00120C6
:101CBC0000F0CEFA1CE00A4B00221A60FEF7B2FDCF
:101CCC0038610FE0FEF7AEFD02463B69D31A022BDA
:101CDC0008D9032346E100BF001002400000424235
:101CEC0080044242924B5B6A03F00203002BE9D161
:101CFC007B681B6803F00403002B00F0A680002314
:101D0C00FB758B4BDB6903F08053002B0DD1884B9B
:101D1C00DB69874A43F08053D361854BDB6903F061
:101D2C008053BB60BB680123FB75824B1B6803F4BB
:101D3C008073002B18D17F4B1B687E4A43F4807351
:101D4C001360FEF76FFD386108E0FEF76BFD02468D
:101D5C003B69D31A642B01D9032303E1754B1B6830
:101D6C0003F48073002BF0D07B68DB68012B06D169
:101D7C006F4B1B6A6E4A43F0010313622DE07B68C4
:101D8C00DB68002B0CD16A4B1B6A694A23F00103F8
:101D9C001362674B1B6A664A23F0040313621CE050
:101DAC007B68DB68052B0CD1614B1B6A604A43F0E6
:101DBC00040313625E4B1B6A5D4A43F0010313621A
:101DCC000BE05B4B1B6A5A4A23F001031362584B1E
:101DDC001B6A574A23F0040313627B68DB68002BF1
:101DEC0015D0FEF71FFD38610AE0FEF71BFD024619
:101DFC003B69D31A41F28832934201D90323B1E0F3
:101E0C004B4B1B6A03F00203002BEED014E0FEF7E1
:101E1C0009FD38610AE0FEF705FD02463B69D31A5D
:101E2C0041F28832934201D903239BE0404B1B6A59
:101E3C0003F00203002BEED1FB7D012B05D13C4BB3
:101E4C00DB693B4A23F08053D3617B68DB69002B51
:101E5C0000F08780364B5B6803F00C03082B61D0D5
:101E6C007B68DB69022B46D1334B00221A60FEF7EC
:101E7C00D9FC386108E0FEF7D5FC02463B69D31A61
:101E8C00022B01D903236DE0294B1B6803F000736F
:101E9C00002BF0D17B681B6AB3F5803F08D1244B33
:101EAC005B6823F400327B689B68214913434B60C9
:101EBC001F4B5B6823F474127B68196A7B685B6A3E
:101ECC000B431B4913434B601B4B01221A60FEF75B
:101EDC00A9FC386108E0FEF7A5FC02463B69D31A61
:101EEC00022B01D903233DE0114B1B6803F0007357
:101EFC00002BF0D035E0104B00221A60FEF792FC5C
:101F0C00386108E0FEF78EFC02463B69D31A022BBF
:101F1C0001D9032326E0064B1B6803F00073002B4A
:101F2C00F0D11EE07B68DB69012B07D1012319E09E
:101F3C000010024000700040600042420B4B5B6896
:101F4C00FB60FB6803F480327B681B6A9A4206D103
:101F5C00FB6803F470127B685B6A9A4201D0012320
:101F6C0000E0002318461837BD4680BD0010024023
:101F7C0080B584B000AF786039607B68002B01D1EC
:101F8C000123D0E06A4B1B6803F007033A689A42BE
:101F9C0010D9674B1B6823F0070265493B68134354
:101FAC000B60634B1B6803F007033A689A4201D03D
:101FBC000123B8E07B681B6803F00203002B20D0E0
:101FCC007B681B6803F00403002B05D0594B5B683E
:101FDC00584A43F4E06353607B681B6803F00803C2
:101FEC00002B05D0534B5B68524A43F4605353604B
:101FFC00504B5B6823F0F0027B689B684D491343A0
:10200C004B607B681B6803F00103002B40D07B689E
:10201C005B68012B07D1474B1B6803F40033002B83
:10202C0015D101237FE07B685B68022B07D1414B04
:10203C001B6803F00073002B09D1012373E03D4BA7
:10204C001B6803F00203002B01D101236BE0394B19
:10205C005B6823F003027B685B68364913434B6073
:10206C00FEF7E0FBF8600AE0FEF7DCFB0246FB68DB
:10207C00D31A41F28832934201D9032353E02D4BFA
:10208C005B6803F00C027B685B689B009A42EBD1A7
:10209C00274B1B6803F007033A689A4210D2244B73
:1020AC001B6823F0070222493B6813430B60204B4B
:1020BC001B6803F007033A689A4201D0012332E00F
:1020CC007B681B6803F00403002B08D0194B5B687A
:1020DC0023F4E0627B68DB68164913434B607B6832
:1020EC001B6803F00803002B09D0124B5B6823F428
:1020FC0060527B681B69DB000E4913434B6000F098
:10210C0021F802460B4B5B681B0903F00F030A49CD
:10211C00CB5C22FA03F3094A1360094B1B6818467F
:10212C00FEF73EFB002318461037BD4680BD00BFAE
:10213C000020024000100240702700080000002020
:10214C000400002080B487B000AF0023FB600023A4
:10215C00BB6000237B6100237B6000233B611E4B33
:10216C005B68FB60FB6803F00C03042B02D0082BAC
:10217C0003D027E0194B3B6127E0FB689B0C03F075
:10218C000F03174AD35C7B60FB6803F48033002B8E
:10219C0010D0114B5B685B0C03F00103114AD35C4C
:1021AC00BB607B680D4A03FB02F2BB68B2FBF3F326
:1021BC007B6104E07B680C4A02FB03F37B617B6967
:1021CC003B6102E0054B3B6100BF3B6918461C3785
:1021DC00BD4680BC704700BF0010024000127A0060
:1021EC00882700089827000800093D0080B400AF3C
:1021FC00024B1B681846BD4680BC7047000000208F
:10220C0080B500AFFFF7F2FF0246054B5B681B0A77
:10221C0003F007030349CB5C22FA03F3184680BD95
:10222C00001002408027000880B500AFFFF7DEFFEA
:10223C000246054B5B68DB0A03F007030349CB5CE2
:10224C0022FA03F3184680BD0010024080270008D4
:10225C0080B485B000AF78600A4B1B680A4AA2FBB9
:10226C0003235B0A7A6802FB03F3FB6000BFFB6885
:10227C005A1EFA60002BF9D100BF00BF1437BD46BF
:10228C0080BC704700000020D34D621080B582B036
:10229C0000AF78607B68002B01D1012342E07B68A2
:1022AC0093F84130DBB2002B06D17B68002283F817
:1022BC0040207868FEF7B0F97B68242283F841202F
:1022CC007B681B68DA687B681B6822F40052DA6052
:1022DC00786800F071F97B681B681A697B681B6869
:1022EC0022F490421A617B681B685A697B681B68F0
:1022FC0022F02A025A617B681B68DA687B681B68CB
:10230C0042F40052DA607B6800225A647B68202217
:10231C0083F841207B68202283F842207B680022CE
:10232C005A63002318460837BD4680BD80B58AB075
:10233C0002AFF860B9603B601346FB8000237B6101
:10234C00FB6893F84130DBB2202B75D1BB68002BB6
:10235C0002D0FB88002B01D101236EE0FB68002228
:10236C005A64FB68212283F84120FEF75BFA7861FE
:10237C00FB68FA889A84FB68FA88DA84FB689B68A5
:10238C00B3F5805F08D1FB681B69002B04D10023D7
:10239C00FB61BB68BB6103E0BB68FB610023BB61F5
:1023AC002EE03B6800937B6900228021F86800F0E6
:1023BC0048F80346002B05D0FB68202283F8412007
:1023CC0003233AE0FB69002B0BD1BB691B881A462F
:1023DC00FB681B68C2F308025A60BB690233BB611D
:1023EC0007E0FB691A78FB681B685A60FB690133CC
:1023FC00FB61FB68DB8C9BB2013B9AB2FB68DA8415
:10240C00FB68DB8C9BB2002BCBD13B6800937B69C8
:10241C0000224021F86800F014F80346002B05D088
:10242C00FB68202283F84120032306E0FB6820226E
:10243C0083F84120002300E0022318462037BD46D4
:10244C0080BD80B586B000AFF860B9603B601346C4
:10245C00FB713BE03B6AB3F1FF3F37D0FEF7E2F98B
:10246C0002463B68D31A3A6A9A4202D33B6A002B63
:10247C0001D103233AE0FB681B68DB6803F004031B
:10248C00002B23D0BB68802B20D0BB68402B1DD0E9
:10249C00FB681B681B6803F00803082B16D100238C
:1024AC007B61FB681B681B687B61FB681B685B6856
:1024BC007B617B69F86800F01DF8FB6808225A64A0
:1024CC00FB68002283F8402001230FE0FB681B68A7
:1024DC001A68BB681340BA689A420CBF01230023E8
:1024EC00DBB21A46FB799A42B4D00023184618374F
:1024FC00BD4680BD80B495B000AF78607B681B682A
:10250C000C337B637B6B53E8003F3B633B6B23F4E7
:10251C009073FB647B681B680C33FA6C3A64FB6346
:10252C00F96B3A6C41E80023BB63BB6B002BE5D124
:10253C007B681B6814333B623B6A53E8003FFB61CA
:10254C00FB6923F00103BB647B681B681433BA6C12
:10255C00FA62BB62B96AFA6A41E800237B627B6A61
:10256C00002BE5D17B681B6B012B19D17B681B6899
:10257C000C33FB60FB6853E8003FBB60BB6823F087
:10258C0010037B647B681B680C337A6CBA617B61CB
:10259C007969BA6941E800233B613B69002BE5D1BD
:1025AC007B68202283F842207B6800221A6300BFDC
:1025BC005437BD4680BC704780B584B000AF78609E
:1025CC007B681B681B6923F440517B68DA687B6865
:1025DC001B680A431A617B689A687B681B691A43FB
:1025EC007B685B691343BB607B681B68DB6823F407
:1025FC00B05323F00C037A681268B9680B43D360AC
:10260C007B681B685B6923F440717B689A697B6803
:10261C001B680A435A617B681B682C4A934203D19E
:10262C00FFF702FEF86002E0FFF7EAFDF860FA68D7
:10263C0013469B0013449A001A447B685B689B000A
:10264C00B2FBF3F3224AA2FB03235B091901FA68DC
:10265C0013469B0013449A001A447B685B689B00EA
:10266C00B2FBF3F21A4BA3FB02035B09642000FBE1
:10267C0003F3D31A1B013233154AA2FB03235B0964
:10268C0003F0F0031944FA6813469B0013449A00B4
:10269C001A447B685B689B00B2FBF3F20C4BA3FB08
:1026AC0002035B09642000FB03F3D31A1B013233D2
:1026BC00074AA2FB03235B0903F00F027B681B682C
:1026CC000A449A6000BF1037BD4680BD00380140F7
:1026DC001F85EB5103460244934200D1704703F827
:1026EC00011BF9E770B500260C4D0D4B5B1B9C10C4
:1026FC00A64209D1002600F019F80A4D0A4B5B1BC3
:10270C009C10A64205D170BD55F8043B9847013684
:10271C00EEE755F8043B98470136F2E7A42700088A
:10272C00A4270008A4270008A8270008F8B500BFB4
:10273C00F8BC08BC9E467047F8B500BFF8BC08BC96
:04274C009E467047EE
:1027500043414E2F5541525420446961676E6F7357
:10276000746963204F6E6C696E650D0A000000008D
:102770000000000000000000010203040607080931
:102780000000000001020304020304050607080913
:0C2790000A0B0C0D0E0F101001020000CF
:08279C00B0D9FF7F010000002D
:0427A40031010008F7
:0427A8000D01000817
:0C27AC0000127A00100000000100000084
:0400000508000735B3
:00000001FF
